:1000000000308A0050280000243084008313000848
:10001000031917280630F800F701F70B0D28F80B25
:100020000C287B30F700F70B1328800B0A280800F8
:10003000A0102008831687008312871023089300DE
:100040008316140C031C212864308312A40004209E
:10005000A010200883168700831287146430A40040
:1000600004208A110A128B28201120088316870089
:1000700083120711230893008316140C031C3D28D8
:1000800064308312A4000420201120088316870006
:10009000831207156430A40004208A110A129028E4
:1000A00003081F398300FF30A00083161F149F141C
:1000B0001F159F1107309C00831387018312941230
:1000C000A0122008831687008312201620088316AA
:1000D00087008312A0112008831687002130831225
:1000E000940000308316940064308312A40004202E
:1000F000A01020088316870083128714201120087F
:1001000083168700831207157F30A1000330A200F9
:100110002108A30018280130A1072208A3003428D1
:100120000130A207210F9628A1019928220F9928B2
:0C013000A2016430A400042088286300B1
:02400E003A3F37
:00000001FF
;PIC16F877A
;CRC=98FD  CREATED="03-Thg6-23 09:51"
