:1000000001308A00102900008E30F7002408F80023
:100010002308F900FA01F808031D18287908F800E8
:10002000F9010830F702F808031D1828F701202805
:100030000310F81B1F28F90DF80DF7031828F81303
:100040008A110A12532923080319E828AF00270848
:100050000319E828AF02031C32287F30AF070318CA
:10006000E82838288130AF02031CE8280319E82863
:100070002F08F700F801F901FA01AE012408AD00DC
:10008000AD172508AC002608AB001930AF002A08D0
:10009000AB0203185B280130AC0203185B28AD02E9
:1000A00003185B28AE0203185B28AE0AAD0AAC0A3F
:1000B0002A08AB078D282908AC02031876280130DE
:1000C000AD0203187628AE0203187628AE0AAD0AF0
:1000D0002908AC072A08AB07031C8D28AC0A031DAE
:1000E0008D28AD0A031D8D28AE0A8D28280880387A
:1000F000AD0203188C280130AE0203188C28AE0A1A
:1001000028088038AD072908AC07031C6A28AD0A07
:10011000031D6A28AE0A6A287A14AF0B90289B2820
:100120000310AB0DAC0DAD0DAE0D0310FA0DF90DB6
:10013000F80DB00D4728301CA3280310F80CF90C5B
:10014000FA0CB00CA628F7030319E828B01BCF2837
:100150000310AB0DAC0DAD0DAE0D2A08AB020318AC
:10016000BB280130AC020318BB28AD020318BB2822
:10017000AE02031CDE282908AC020318C628013091
:10018000AD020318C628AE02031CDE2828088038FA
:10019000AD020318CF280130AE02031CDE28FA0A94
:1001A000031DDE28F90A031DDE28F80A031DDE28D8
:1001B000F70A0319E828F80CF90CFA0C2408AF0028
:1001C0002808AF06AF1FE628F817EC28F813EC282C
:1001D000F701F801F901FA018A110A1264298E3037
:1001E000F7002308F7022408F9002508F800F9179A
:1001F000F708031906290310F908031D0229F80856
:1002000003190629F90CF80CF70BFB28A41F0D297C
:10021000F809F909F80A0319F90A8A110A126D296D
:1002200003081F398300813083169900A630980097
:10023000903083129800A20183161F149F141F157B
:100240009F1107309C008313013086001F13831217
:100250001F179F1783169F1783121F1483161F14CF
:100260009F141F159F150030F80083121F08C7390F
:1002700078049F001030F700F70B3C290000003095
:10028000F8001F08C73978049F001F151F19462959
:1002900083161E088312A0001E08A1002108A400D6
:1002A0002008A30004287A08A6007908A500780889
:1002B000A4007708A300AA30AA00F130A9000230F8
:1002C000A8008030A70023287A08A6007908A50096
:1002D0007808A4007708A300EF287808A200831606
:1002E00006168312061A7E291030F700F70B7629BE
:1002F00000004C300C1E7A2999008C298316861632
:100300008312861A8C291030F700F70B852900001C
:0C03100022080C1E892999003F29630077
:02400E003A3F37
:00000001FF
;PIC16F877A
;CRC=2D6C  CREATED="19-Thg6-23 16:18"
