:1000000000308A0057280000FF00030E8301A10082
:100010000A08A0008A010408A2007708A300780853
:10002000A4007908A5007A08A600831383128B1E0A
:100030001B280B192C28220884002308F700240809
:10004000F8002508F9002608FA0020088A00210E89
:100050008300FF0E7F0E09008A110A122F28063036
:100060008100A80A28089D3C031D4328271C43281B
:10007000A80183168811831288158316081183122C
:1000800008112710532828089D3C031D53282718C2
:100090005328A801831608118312081583168811A6
:1000A0008312881127140B118A110A121B280308C6
:1000B0001F39830083161F149F141F159F110730CB
:1000C0009C0083138801C03083128B048B16831627
:1000D0000108C03906388100853083129000810103
:1000E0008E018F018E018316081083120814831667
:1000F000881083128814A80129140F08FA000E082A
:10010000F7000F087A02031D7D287708AA007A08F5
:10011000AB002B08123C03189428FF3A031D9628C5
:100120002A08883C031C9628003097280130AA0032
:100130000030291801302A05003A0319A8288E0139
:100140008F018E0183168810831288102910D228FF
:100150000F08FA000E08F7000F087A02031DA828FE
:100160007708AA007A08AB002B08263C0318BF28A2
:10017000FF3A031DC1282A08103C031CC128003087
:10018000C2280130AA000030291C01302A05003A9B
:100190000319D2288E018F018E01831688108312D5
:0801A000881429147D28630076
:02400E003A3F37
:00000001FF
;PIC16F877A
;CRC=5871  CREATED="01-Thg6-23 21:56"
