:1000000000308A005D280000FF00030E8301A1007C
:100010000A08A0008A010408A2007708A300780853
:10002000A4007908A5007A08A600831383128B1D0B
:100030001B280B182C28220884002308F70024080A
:10004000F8002508F9002608FA0020088A00210E89
:100050008300FF0E7F0E09008A110A122F288316D3
:1000600086168312861A3928A70A2708093C031C1A
:10007000A701831606178312061B4528A703270826
:10008000FF3C031D45280930A7000B108A110A12F6
:100090001B28313084008313000803195C280630C4
:1000A000F800F701F70B5228F80B51287B30F700C6
:1000B000F70B5828800B4F28080003081F398300CE
:1000C00083161F149F141F159F1107309C00831364
:1000D0008801FF30860083128801A701C0308B049D
:1000E0008B158316011383122708013A03199128EF
:1000F000033A0319A628013A0319BB28073A031942
:10010000DC28013A0319FD28033A03194229013A70
:10011000031986290F3A03199C29013A0319C729A3
:10012000EF290130A800AA012A08073C031CA528D2
:10013000280888006430B10049200310A80D270B5F
:10014000A228A328A528AA0A9428F0294030A800AC
:10015000AB012B08073C031CBA2828088800643030
:10016000B10049200310A80C2708023C031DBA283F
:10017000AB0AA928F029413088006430B100492039
:100180002708033C031DF029223088006430B100A9
:1001900049202708033C031DF029143088006430EF
:1001A000B10049202708033C031DF02908308800CE
:1001B0006430B1004920F029083088006430B10073
:1001C00049202708043C031DF029143088006430BE
:1001D000B10049202708043C031DF0292230880083
:1001E0006430B10049202708043C031DF029413048
:1001F00088006430B1004920F02941308800643023
:10020000B10049202708053C031DF0292230880051
:100210006430B10049202708053C031DF029143043
:1002200088006430B10049202708053C031DF029EF
:10023000083088006430B10049202708053C031DC0
:10024000F029083088006430B10049202708053CB7
:10025000031DF029143088006430B10049202708BC
:10026000053C031DF029223088006430B10049208C
:100270002708053C031DF029413088006430B10097
:100280004920F029413088006430B1004920270816
:10029000063C031DF029633088006430B10049201A
:1002A0002708063C031DF029773088006430B10030
:1002B00049202708063C031DF0297F308800643060
:1002C000B10049202708063C031DF029773088003B
:1002D0006430B10049202708063C031DF029633033
:1002E00088006430B10049202708063C031DF0292E
:1002F000413088006430B10049202708063C031DC6
:10030000F02988016430B1004920F029A801AC012E
:100310002C08073C031C9B290310280C4038A8001C
:10032000280888006430B10049202708073C031DD5
:100330009B29AC0A8829F029A801AD012D08073CAA
:10034000031CB1290310280C4038A8002808880095
:100350006430B10049202708083C031DB129AD0ACB
:100360009E29A801AE012E08073C031CC6290310D4
:10037000280D0138A800280888006430B100492001
:100380002708083C031DC629AE0AB329F029A80195
:10039000AF012F08073C031CDC290310280C403850
:1003A000A800280888006430B10049202708093CCB
:1003B000031DDC29AF0AC929B0013008073C031C22
:1003C000EE290310A80C280888006430B1004920E9
:1003D0002708093C031DEE29B00ADD29F029880110
:0403E000742863001A
:02400E003A3F37
:00000001FF
;PIC16F877A
;CRC=8113  CREATED="03-Thg6-23 10:25"
